:0209AF00C10085
:1009230053D9BF43B20312098E12097C1209631211
:1009330009A843E601D2A2D2AF7F01780B74FDF67A
:1009430008DFFC7F013000FDC200E4FF740C2FF8C8
:10095300E6FE740B2FF8A6060FBF01F0B2A280E5E6
:0709A80075C11D43C180224F
:10097C00438E01538EF5758920758D9C858D8BD298
:02098C008E22B9
:10096300E4F591538EBF75939E7592588593958543
:09097300929443E68043910422B2
:10098E00E4F5A443A60475E10475E2407580FF22E8
:03003B00020800B8
:0B080000C0E0C0D075D000C000C007F1
:10080B0020C278E5C054F0602D24F0604824D060FD
:10081B004824F0605A2430705AC2C5750801750916
:10082B0001E5C254FEFFBFEE09D2C1E5C230E05173
:10083B008031C2C1804BE509C39401740B500B2569
:10084B0009F8A6C20509D2C180372509F8A6C2D27C
:10085B0000D2C1802CC2C4802830C125E508D394B6
:10086B0001501E740A2508F8E6F5C205088012C26D
:10087B00C4800E53C17F43C1808000C2C5C2C4C2B5
:03088B00C1C2C027
:09088E00D007D000D0D0D0E03238
:0300730002099EE1
:0A099E0053C17F43C18053917F32A3
:030000000208975C
:0C089700787FE4F6D8FD7581200208DEB1
:1008A300020923E493A3F8E493A34003F68001F23F
:1008B30008DFF48029E493A3F85407240CC8C33356
:1008C300C4540F4420C8834004F456800146F6DF25
:1008D300E4800B01020408102040809009AFE47EFD
:1008E300019360BCA3FF543F30E509541FFEE4931A
:1008F300A360010ECF54C025E060A840B8E493A3E1
:10090300FAE493A3F8E493A3C8C582C8CAC583CA0B
:10091300F0A3C8C582C8CAC583CADFE9DEE780BEC3
:0109B1000045
:00000001FF
